{
  "contractName": "EMRContract",
  "abi": [
    {
      "inputs": [],
      "payable": false,
      "stateMutability": "nonpayable",
      "type": "constructor"
    },
    {
      "anonymous": false,
      "inputs": [
        {
          "indexed": true,
          "internalType": "uint256",
          "name": "index",
          "type": "uint256"
        },
        {
          "indexed": false,
          "internalType": "address",
          "name": "sender",
          "type": "address"
        }
      ],
      "name": "eAppointmentAdd",
      "type": "event"
    },
    {
      "anonymous": false,
      "inputs": [
        {
          "indexed": true,
          "internalType": "uint256",
          "name": "index",
          "type": "uint256"
        },
        {
          "indexed": false,
          "internalType": "address",
          "name": "sender",
          "type": "address"
        }
      ],
      "name": "eAppointmentUpdate",
      "type": "event"
    },
    {
      "constant": true,
      "inputs": [],
      "name": "AppointmentIndex",
      "outputs": [
        {
          "internalType": "uint256",
          "name": "",
          "type": "uint256"
        }
      ],
      "payable": false,
      "stateMutability": "view",
      "type": "function"
    },
    {
      "constant": true,
      "inputs": [
        {
          "internalType": "address",
          "name": "",
          "type": "address"
        }
      ],
      "name": "Doctors",
      "outputs": [
        {
          "internalType": "address",
          "name": "Id",
          "type": "address"
        },
        {
          "internalType": "string",
          "name": "fullname",
          "type": "string"
        },
        {
          "internalType": "string",
          "name": "designation",
          "type": "string"
        },
        {
          "internalType": "string",
          "name": "dob",
          "type": "string"
        },
        {
          "internalType": "enum EMRContract.SexType",
          "name": "sex",
          "type": "uint8"
        },
        {
          "internalType": "string",
          "name": "email",
          "type": "string"
        }
      ],
      "payable": false,
      "stateMutability": "view",
      "type": "function"
    },
    {
      "constant": true,
      "inputs": [],
      "name": "MedicalReportIndex",
      "outputs": [
        {
          "internalType": "uint256",
          "name": "",
          "type": "uint256"
        }
      ],
      "payable": false,
      "stateMutability": "view",
      "type": "function"
    },
    {
      "constant": true,
      "inputs": [
        {
          "internalType": "address",
          "name": "",
          "type": "address"
        }
      ],
      "name": "administrator",
      "outputs": [
        {
          "internalType": "bool",
          "name": "",
          "type": "bool"
        }
      ],
      "payable": false,
      "stateMutability": "view",
      "type": "function"
    },
    {
      "constant": true,
      "inputs": [
        {
          "internalType": "uint256",
          "name": "",
          "type": "uint256"
        }
      ],
      "name": "appointments",
      "outputs": [
        {
          "internalType": "uint256",
          "name": "index",
          "type": "uint256"
        },
        {
          "internalType": "address",
          "name": "patient",
          "type": "address"
        },
        {
          "internalType": "uint256",
          "name": "datetime",
          "type": "uint256"
        },
        {
          "internalType": "enum EMRContract.AppointmentStat",
          "name": "stat",
          "type": "uint8"
        },
        {
          "internalType": "string",
          "name": "remark",
          "type": "string"
        },
        {
          "internalType": "address",
          "name": "doctor",
          "type": "address"
        }
      ],
      "payable": false,
      "stateMutability": "view",
      "type": "function"
    },
    {
      "constant": true,
      "inputs": [
        {
          "internalType": "address",
          "name": "",
          "type": "address"
        }
      ],
      "name": "isDoctor",
      "outputs": [
        {
          "internalType": "bool",
          "name": "",
          "type": "bool"
        }
      ],
      "payable": false,
      "stateMutability": "view",
      "type": "function"
    },
    {
      "constant": true,
      "inputs": [
        {
          "internalType": "uint256",
          "name": "",
          "type": "uint256"
        }
      ],
      "name": "medicalreports",
      "outputs": [
        {
          "internalType": "string",
          "name": "docname",
          "type": "string"
        },
        {
          "internalType": "string",
          "name": "docpath",
          "type": "string"
        },
        {
          "internalType": "string",
          "name": "docdesp",
          "type": "string"
        },
        {
          "internalType": "bool",
          "name": "isActive",
          "type": "bool"
        },
        {
          "internalType": "uint256",
          "name": "index",
          "type": "uint256"
        }
      ],
      "payable": false,
      "stateMutability": "view",
      "type": "function"
    },
    {
      "constant": true,
      "inputs": [],
      "name": "owner",
      "outputs": [
        {
          "internalType": "address",
          "name": "",
          "type": "address"
        }
      ],
      "payable": false,
      "stateMutability": "view",
      "type": "function"
    },
    {
      "constant": true,
      "inputs": [
        {
          "internalType": "address",
          "name": "",
          "type": "address"
        }
      ],
      "name": "patients",
      "outputs": [
        {
          "internalType": "address",
          "name": "client",
          "type": "address"
        },
        {
          "internalType": "string",
          "name": "fullname",
          "type": "string"
        },
        {
          "internalType": "string",
          "name": "dob",
          "type": "string"
        },
        {
          "internalType": "enum EMRContract.SexType",
          "name": "sex",
          "type": "uint8"
        },
        {
          "internalType": "enum EMRContract.MaritalType",
          "name": "marital",
          "type": "uint8"
        },
        {
          "internalType": "string",
          "name": "email",
          "type": "string"
        }
      ],
      "payable": false,
      "stateMutability": "view",
      "type": "function"
    },
    {
      "constant": true,
      "inputs": [],
      "name": "version",
      "outputs": [
        {
          "internalType": "string",
          "name": "",
          "type": "string"
        }
      ],
      "payable": false,
      "stateMutability": "view",
      "type": "function"
    },
    {
      "constant": false,
      "inputs": [
        {
          "internalType": "address",
          "name": "_doctor",
          "type": "address"
        },
        {
          "internalType": "string",
          "name": "_fullname",
          "type": "string"
        },
        {
          "internalType": "string",
          "name": "_designation",
          "type": "string"
        },
        {
          "internalType": "string",
          "name": "_dob",
          "type": "string"
        },
        {
          "internalType": "enum EMRContract.SexType",
          "name": "_sex",
          "type": "uint8"
        },
        {
          "internalType": "string",
          "name": "_email",
          "type": "string"
        }
      ],
      "name": "SetDoctor",
      "outputs": [],
      "payable": false,
      "stateMutability": "nonpayable",
      "type": "function"
    },
    {
      "constant": false,
      "inputs": [],
      "name": "kill",
      "outputs": [],
      "payable": false,
      "stateMutability": "nonpayable",
      "type": "function"
    },
    {
      "constant": false,
      "inputs": [
        {
          "internalType": "string",
          "name": "_fullname",
          "type": "string"
        },
        {
          "internalType": "string",
          "name": "_dob",
          "type": "string"
        },
        {
          "internalType": "enum EMRContract.SexType",
          "name": "_sex",
          "type": "uint8"
        },
        {
          "internalType": "enum EMRContract.MaritalType",
          "name": "_marital",
          "type": "uint8"
        },
        {
          "internalType": "string",
          "name": "_email",
          "type": "string"
        },
        {
          "internalType": "uint256[]",
          "name": "_medicalreport",
          "type": "uint256[]"
        }
      ],
      "name": "SignupPatient",
      "outputs": [],
      "payable": false,
      "stateMutability": "nonpayable",
      "type": "function"
    },
    {
      "constant": false,
      "inputs": [
        {
          "internalType": "string",
          "name": "_fullname",
          "type": "string"
        },
        {
          "internalType": "string",
          "name": "_dob",
          "type": "string"
        },
        {
          "internalType": "enum EMRContract.SexType",
          "name": "_sex",
          "type": "uint8"
        },
        {
          "internalType": "enum EMRContract.MaritalType",
          "name": "_marital",
          "type": "uint8"
        },
        {
          "internalType": "string",
          "name": "_email",
          "type": "string"
        }
      ],
      "name": "PatientUpdate",
      "outputs": [],
      "payable": false,
      "stateMutability": "nonpayable",
      "type": "function"
    },
    {
      "constant": false,
      "inputs": [
        {
          "internalType": "uint256",
          "name": "_datetime",
          "type": "uint256"
        },
        {
          "internalType": "enum EMRContract.AppointmentStat",
          "name": "_stat",
          "type": "uint8"
        },
        {
          "internalType": "string",
          "name": "_remark",
          "type": "string"
        },
        {
          "internalType": "address",
          "name": "_doctor",
          "type": "address"
        }
      ],
      "name": "AppointmentAdd",
      "outputs": [],
      "payable": false,
      "stateMutability": "nonpayable",
      "type": "function"
    },
    {
      "constant": false,
      "inputs": [
        {
          "internalType": "uint256",
          "name": "_AppointmentIndex",
          "type": "uint256"
        },
        {
          "internalType": "enum EMRContract.AppointmentStat",
          "name": "_stat",
          "type": "uint8"
        },
        {
          "internalType": "string",
          "name": "_remark",
          "type": "string"
        },
        {
          "internalType": "address",
          "name": "_doctor",
          "type": "address"
        }
      ],
      "name": "AppointmentUpdate",
      "outputs": [],
      "payable": false,
      "stateMutability": "nonpayable",
      "type": "function"
    },
    {
      "constant": true,
      "inputs": [],
      "name": "AppointmentGet",
      "outputs": [
        {
          "internalType": "uint256[]",
          "name": "",
          "type": "uint256[]"
        }
      ],
      "payable": false,
      "stateMutability": "view",
      "type": "function"
    },
    {
      "constant": false,
      "inputs": [
        {
          "internalType": "address payable",
          "name": "_receiver",
          "type": "address"
        }
      ],
      "name": "payment",
      "outputs": [],
      "payable": true,
      "stateMutability": "payable",
      "type": "function"
    },
    {
      "constant": false,
      "inputs": [
        {
          "internalType": "string",
          "name": "_docname",
          "type": "string"
        },
        {
          "internalType": "string",
          "name": "_docpath",
          "type": "string"
        },
        {
          "internalType": "string",
          "name": "_docdesp",
          "type": "string"
        }
      ],
      "name": "MedicalReportAdd",
      "outputs": [],
      "payable": false,
      "stateMutability": "nonpayable",
      "type": "function"
    },
    {
      "constant": true,
      "inputs": [
        {
          "internalType": "address",
          "name": "_addr",
          "type": "address"
        }
      ],
      "name": "MedicalReportGet",
      "outputs": [
        {
          "internalType": "uint256[]",
          "name": "",
          "type": "uint256[]"
        }
      ],
      "payable": false,
      "stateMutability": "view",
      "type": "function"
    }
  ],
  "bytecode": "0x60806040526040518060400160405280600581526020017f302e302e310000000000000000000000000000000000000000000000000000008152506009908051906020019062000051929190620000ff565b503480156200005f57600080fd5b5033600860006101000a81548173ffffffffffffffffffffffffffffffffffffffff021916908373ffffffffffffffffffffffffffffffffffffffff1602179055506001600360003373ffffffffffffffffffffffffffffffffffffffff1673ffffffffffffffffffffffffffffffffffffffff16815260200190815260200160002060006101000a81548160ff021916908315150217905550620001ae565b828054600181600116156101000203166002900490600052602060002090601f016020900481019282601f106200014257805160ff191683800117855562000173565b8280016001018555821562000173579182015b828111156200017257825182559160200191906001019062000155565b5b50905062000182919062000186565b5090565b620001ab91905b80821115620001a75760008160009055506001016200018d565b5090565b90565b6131d380620001be6000396000f3fe60806040526004361061011f5760003560e01c8063688c7bf3116100a0578063d22a225511610064578063d22a225514610f8b578063dc7aa36b14611129578063e1d172181461137f578063f4fe9fad14611425578063f7b2b0ca1461148e5761011f565b8063688c7bf314610bab5780638da5cb5b14610caa578063925755ff14610d01578063996440c614610ef75780639cdf8e8214610f605761011f565b806341c0e1b5116100e757806341c0e1b5146107b35780634c32abbf146107ca578063547a4124146107f557806354fd4d5014610aaf5780635e98811614610b3f5761011f565b806303e20304146101245780630869cfbc1461022357806312dc90131461042257806321ad6c3a1461055f5780633b92f3df1461076f575b600080fd5b34801561013057600080fd5b506102216004803603608081101561014757600080fd5b8101908080359060200190929190803560ff1690602001909291908035906020019064010000000081111561017b57600080fd5b82018360208201111561018d57600080fd5b803590602001918460018302840111640100000000831117156101af57600080fd5b91908080601f016020809104026020016040519081016040528093929190818152602001838380828437600081840152601f19601f820116905080830192505050505050509192919290803573ffffffffffffffffffffffffffffffffffffffff169060200190929190505050611732565b005b34801561022f57600080fd5b506102726004803603602081101561024657600080fd5b81019080803573ffffffffffffffffffffffffffffffffffffffff169060200190929190505050611a18565b604051808773ffffffffffffffffffffffffffffffffffffffff1673ffffffffffffffffffffffffffffffffffffffff16815260200180602001806020018660028111156102bc57fe5b60ff1681526020018560058111156102d057fe5b60ff16815260200180602001848103845289818151815260200191508051906020019080838360005b838110156103145780820151818401526020810190506102f9565b50505050905090810190601f1680156103415780820380516001836020036101000a031916815260200191505b50848103835288818151815260200191508051906020019080838360005b8381101561037a57808201518184015260208101905061035f565b50505050905090810190601f1680156103a75780820380516001836020036101000a031916815260200191505b50848103825285818151815260200191508051906020019080838360005b838110156103e05780820151818401526020810190506103c5565b50505050905090810190601f16801561040d5780820380516001836020036101000a031916815260200191505b50995050505050505050505060405180910390f35b34801561042e57600080fd5b5061045b6004803603602081101561044557600080fd5b8101908080359060200190929190505050611c56565b604051808781526020018673ffffffffffffffffffffffffffffffffffffffff1673ffffffffffffffffffffffffffffffffffffffff1681526020018581526020018460048111156104a957fe5b60ff168152602001806020018373ffffffffffffffffffffffffffffffffffffffff1673ffffffffffffffffffffffffffffffffffffffff168152602001828103825284818151815260200191508051906020019080838360005b8381101561051f578082015181840152602081019050610504565b50505050905090810190601f16801561054c5780820380516001836020036101000a031916815260200191505b5097505050505050505060405180910390f35b34801561056b57600080fd5b5061076d600480360360a081101561058257600080fd5b810190808035906020019064010000000081111561059f57600080fd5b8201836020820111156105b157600080fd5b803590602001918460018302840111640100000000831117156105d357600080fd5b91908080601f016020809104026020016040519081016040528093929190818152602001838380828437600081840152601f19601f8201169050808301925050505050505091929192908035906020019064010000000081111561063657600080fd5b82018360208201111561064857600080fd5b8035906020019184600183028401116401000000008311171561066a57600080fd5b91908080601f016020809104026020016040519081016040528093929190818152602001838380828437600081840152601f19601f820116905080830192505050505050509192919290803560ff169060200190929190803560ff169060200190929190803590602001906401000000008111156106e757600080fd5b8201836020820111156106f957600080fd5b8035906020019184600183028401116401000000008311171561071b57600080fd5b91908080601f016020809104026020016040519081016040528093929190818152602001838380828437600081840152601f19601f820116905080830192505050505050509192919290505050611d77565b005b6107b16004803603602081101561078557600080fd5b81019080803573ffffffffffffffffffffffffffffffffffffffff169060200190929190505050611fdd565b005b3480156107bf57600080fd5b506107c8612027565b005b3480156107d657600080fd5b506107df61209a565b6040518082815260200191505060405180910390f35b34801561080157600080fd5b50610aad600480360360c081101561081857600080fd5b81019080803573ffffffffffffffffffffffffffffffffffffffff1690602001909291908035906020019064010000000081111561085557600080fd5b82018360208201111561086757600080fd5b8035906020019184600183028401116401000000008311171561088957600080fd5b91908080601f016020809104026020016040519081016040528093929190818152602001838380828437600081840152601f19601f820116905080830192505050505050509192919290803590602001906401000000008111156108ec57600080fd5b8201836020820111156108fe57600080fd5b8035906020019184600183028401116401000000008311171561092057600080fd5b91908080601f016020809104026020016040519081016040528093929190818152602001838380828437600081840152601f19601f8201169050808301925050505050505091929192908035906020019064010000000081111561098357600080fd5b82018360208201111561099557600080fd5b803590602001918460018302840111640100000000831117156109b757600080fd5b91908080601f016020809104026020016040519081016040528093929190818152602001838380828437600081840152601f19601f820116905080830192505050505050509192919290803560ff16906020019092919080359060200190640100000000811115610a2757600080fd5b820183602082011115610a3957600080fd5b80359060200191846001830284011164010000000083111715610a5b57600080fd5b91908080601f016020809104026020016040519081016040528093929190818152602001838380828437600081840152601f19601f8201169050808301925050505050505091929192905050506120a0565b005b348015610abb57600080fd5b50610ac461237d565b6040518080602001828103825283818151815260200191508051906020019080838360005b83811015610b04578082015181840152602081019050610ae9565b50505050905090810190601f168015610b315780820380516001836020036101000a031916815260200191505b509250505060405180910390f35b348015610b4b57600080fd5b50610b5461241b565b6040518080602001828103825283818151815260200191508051906020019060200280838360005b83811015610b97578082015181840152602081019050610b7c565b505050509050019250505060405180910390f35b348015610bb757600080fd5b50610ca860048036036080811015610bce57600080fd5b8101908080359060200190929190803560ff16906020019092919080359060200190640100000000811115610c0257600080fd5b820183602082011115610c1457600080fd5b80359060200191846001830284011164010000000083111715610c3657600080fd5b91908080601f016020809104026020016040519081016040528093929190818152602001838380828437600081840152601f19601f820116905080830192505050505050509192919290803573ffffffffffffffffffffffffffffffffffffffff1690602001909291905050506124d1565b005b348015610cb657600080fd5b50610cbf6125b9565b604051808273ffffffffffffffffffffffffffffffffffffffff1673ffffffffffffffffffffffffffffffffffffffff16815260200191505060405180910390f35b348015610d0d57600080fd5b50610ef560048036036060811015610d2457600080fd5b8101908080359060200190640100000000811115610d4157600080fd5b820183602082011115610d5357600080fd5b80359060200191846001830284011164010000000083111715610d7557600080fd5b91908080601f016020809104026020016040519081016040528093929190818152602001838380828437600081840152601f19601f82011690508083019250505050505050919291929080359060200190640100000000811115610dd857600080fd5b820183602082011115610dea57600080fd5b80359060200191846001830284011164010000000083111715610e0c57600080fd5b91908080601f016020809104026020016040519081016040528093929190818152602001838380828437600081840152601f19601f82011690508083019250505050505050919291929080359060200190640100000000811115610e6f57600080fd5b820183602082011115610e8157600080fd5b80359060200191846001830284011164010000000083111715610ea357600080fd5b91908080601f016020809104026020016040519081016040528093929190818152602001838380828437600081840152601f19601f8201169050808301925050505050505091929192905050506125df565b005b348015610f0357600080fd5b50610f4660048036036020811015610f1a57600080fd5b81019080803573ffffffffffffffffffffffffffffffffffffffff16906020019092919050505061282a565b604051808215151515815260200191505060405180910390f35b348015610f6c57600080fd5b50610f7561284a565b6040518082815260200191505060405180910390f35b348015610f9757600080fd5b50610fc460048036036020811015610fae57600080fd5b8101908080359060200190929190505050612850565b6040518080602001806020018060200186151515158152602001858152602001848103845289818151815260200191508051906020019080838360005b8381101561101c578082015181840152602081019050611001565b50505050905090810190601f1680156110495780820380516001836020036101000a031916815260200191505b50848103835288818151815260200191508051906020019080838360005b83811015611082578082015181840152602081019050611067565b50505050905090810190601f1680156110af5780820380516001836020036101000a031916815260200191505b50848103825287818151815260200191508051906020019080838360005b838110156110e85780820151818401526020810190506110cd565b50505050905090810190601f1680156111155780820380516001836020036101000a031916815260200191505b509850505050505050505060405180910390f35b34801561113557600080fd5b506111786004803603602081101561114c57600080fd5b81019080803573ffffffffffffffffffffffffffffffffffffffff169060200190929190505050612a5b565b604051808773ffffffffffffffffffffffffffffffffffffffff1673ffffffffffffffffffffffffffffffffffffffff1681526020018060200180602001806020018660028111156111c657fe5b60ff1681526020018060200185810385528a818151815260200191508051906020019080838360005b8381101561120a5780820151818401526020810190506111ef565b50505050905090810190601f1680156112375780820380516001836020036101000a031916815260200191505b50858103845289818151815260200191508051906020019080838360005b83811015611270578082015181840152602081019050611255565b50505050905090810190601f16801561129d5780820380516001836020036101000a031916815260200191505b50858103835288818151815260200191508051906020019080838360005b838110156112d65780820151818401526020810190506112bb565b50505050905090810190601f1680156113035780820380516001836020036101000a031916815260200191505b50858103825286818151815260200191508051906020019080838360005b8381101561133c578082015181840152602081019050611321565b50505050905090810190601f1680156113695780820380516001836020036101000a031916815260200191505b509a505050505050505050505060405180910390f35b34801561138b57600080fd5b506113ce600480360360208110156113a257600080fd5b81019080803573ffffffffffffffffffffffffffffffffffffffff169060200190929190505050612d24565b6040518080602001828103825283818151815260200191508051906020019060200280838360005b838110156114115780820151818401526020810190506113f6565b505050509050019250505060405180910390f35b34801561143157600080fd5b506114746004803603602081101561144857600080fd5b81019080803573ffffffffffffffffffffffffffffffffffffffff169060200190929190505050612dbd565b604051808215151515815260200191505060405180910390f35b34801561149a57600080fd5b50611730600480360360c08110156114b157600080fd5b81019080803590602001906401000000008111156114ce57600080fd5b8201836020820111156114e057600080fd5b8035906020019184600183028401116401000000008311171561150257600080fd5b91908080601f016020809104026020016040519081016040528093929190818152602001838380828437600081840152601f19601f8201169050808301925050505050505091929192908035906020019064010000000081111561156557600080fd5b82018360208201111561157757600080fd5b8035906020019184600183028401116401000000008311171561159957600080fd5b91908080601f016020809104026020016040519081016040528093929190818152602001838380828437600081840152601f19601f820116905080830192505050505050509192919290803560ff169060200190929190803560ff1690602001909291908035906020019064010000000081111561161657600080fd5b82018360208201111561162857600080fd5b8035906020019184600183028401116401000000008311171561164a57600080fd5b91908080601f016020809104026020016040519081016040528093929190818152602001838380828437600081840152601f19601f820116905080830192505050505050509192919290803590602001906401000000008111156116ad57600080fd5b8201836020820111156116bf57600080fd5b803590602001918460208302840111640100000000831117156116e157600080fd5b919080806020026020016040519081016040528093929190818152602001838360200280828437600081840152601f19601f820116905080830192505050505050509192919290505050612ddd565b005b6000803373ffffffffffffffffffffffffffffffffffffffff1673ffffffffffffffffffffffffffffffffffffffff16815260200190815260200160002060000160009054906101000a900473ffffffffffffffffffffffffffffffffffffffff1673ffffffffffffffffffffffffffffffffffffffff163373ffffffffffffffffffffffffffffffffffffffff16146117cb57600080fd5b4284116117d757600080fd5b60011515600460008373ffffffffffffffffffffffffffffffffffffffff1673ffffffffffffffffffffffffffffffffffffffff16815260200190815260200160002060009054906101000a900460ff1615151461183457600080fd5b6006600081548092919060010191905055506040518060c0016040528060065481526020013373ffffffffffffffffffffffffffffffffffffffff16815260200185815260200184600481111561188757fe5b81526020018381526020018273ffffffffffffffffffffffffffffffffffffffff168152506002600060065481526020019081526020016000206000820151816000015560208201518160010160006101000a81548173ffffffffffffffffffffffffffffffffffffffff021916908373ffffffffffffffffffffffffffffffffffffffff1602179055506040820151816002015560608201518160030160006101000a81548160ff0219169083600481111561194057fe5b0217905550608082015181600401908051906020019061196192919061302c565b5060a08201518160050160006101000a81548173ffffffffffffffffffffffffffffffffffffffff021916908373ffffffffffffffffffffffffffffffffffffffff1602179055509050506006547f11bc75e1c881a356fd788845fca53e42abfc6d0fcf1f28e90fc6b518d4163e1733604051808273ffffffffffffffffffffffffffffffffffffffff1673ffffffffffffffffffffffffffffffffffffffff16815260200191505060405180910390a250505050565b60006020528060005260406000206000915090508060000160009054906101000a900473ffffffffffffffffffffffffffffffffffffffff1690806001018054600181600116156101000203166002900480601f016020809104026020016040519081016040528092919081815260200182805460018160011615610100020316600290048015611aea5780601f10611abf57610100808354040283529160200191611aea565b820191906000526020600020905b815481529060010190602001808311611acd57829003601f168201915b505050505090806002018054600181600116156101000203166002900480601f016020809104026020016040519081016040528092919081815260200182805460018160011615610100020316600290048015611b885780601f10611b5d57610100808354040283529160200191611b88565b820191906000526020600020905b815481529060010190602001808311611b6b57829003601f168201915b5050505050908060030160009054906101000a900460ff16908060030160019054906101000a900460ff1690806004018054600181600116156101000203166002900480601f016020809104026020016040519081016040528092919081815260200182805460018160011615610100020316600290048015611c4c5780601f10611c2157610100808354040283529160200191611c4c565b820191906000526020600020905b815481529060010190602001808311611c2f57829003601f168201915b5050505050905086565b60026020528060005260406000206000915090508060000154908060010160009054906101000a900473ffffffffffffffffffffffffffffffffffffffff16908060020154908060030160009054906101000a900460ff1690806004018054600181600116156101000203166002900480601f016020809104026020016040519081016040528092919081815260200182805460018160011615610100020316600290048015611d475780601f10611d1c57610100808354040283529160200191611d47565b820191906000526020600020905b815481529060010190602001808311611d2a57829003601f168201915b5050505050908060050160009054906101000a900473ffffffffffffffffffffffffffffffffffffffff16905086565b6000803373ffffffffffffffffffffffffffffffffffffffff1673ffffffffffffffffffffffffffffffffffffffff16815260200190815260200160002060000160009054906101000a900473ffffffffffffffffffffffffffffffffffffffff1673ffffffffffffffffffffffffffffffffffffffff163373ffffffffffffffffffffffffffffffffffffffff1614611e1057600080fd5b846000803373ffffffffffffffffffffffffffffffffffffffff1673ffffffffffffffffffffffffffffffffffffffff1681526020019081526020016000206001019080519060200190611e659291906130ac565b50836000803373ffffffffffffffffffffffffffffffffffffffff1673ffffffffffffffffffffffffffffffffffffffff1681526020019081526020016000206002019080519060200190611ebb9291906130ac565b50826000803373ffffffffffffffffffffffffffffffffffffffff1673ffffffffffffffffffffffffffffffffffffffff16815260200190815260200160002060030160006101000a81548160ff02191690836002811115611f1957fe5b0217905550816000803373ffffffffffffffffffffffffffffffffffffffff1673ffffffffffffffffffffffffffffffffffffffff16815260200190815260200160002060030160016101000a81548160ff02191690836005811115611f7b57fe5b0217905550806000803373ffffffffffffffffffffffffffffffffffffffff1673ffffffffffffffffffffffffffffffffffffffff1681526020019081526020016000206004019080519060200190611fd59291906130ac565b505050505050565b8073ffffffffffffffffffffffffffffffffffffffff166108fc349081150290604051600060405180830381858888f19350505050158015612023573d6000803e3d6000fd5b5050565b600860009054906101000a900473ffffffffffffffffffffffffffffffffffffffff1673ffffffffffffffffffffffffffffffffffffffff163373ffffffffffffffffffffffffffffffffffffffff161461208157600080fd5b3373ffffffffffffffffffffffffffffffffffffffff16ff5b60075481565b600860009054906101000a900473ffffffffffffffffffffffffffffffffffffffff1673ffffffffffffffffffffffffffffffffffffffff163373ffffffffffffffffffffffffffffffffffffffff16146120fa57600080fd5b600360008773ffffffffffffffffffffffffffffffffffffffff1673ffffffffffffffffffffffffffffffffffffffff16815260200190815260200160002060009054906101000a900460ff161561215157600080fd5b6000600360008873ffffffffffffffffffffffffffffffffffffffff1673ffffffffffffffffffffffffffffffffffffffff16815260200190815260200160002060006101000a81548160ff0219169083151502179055506001600460008873ffffffffffffffffffffffffffffffffffffffff1673ffffffffffffffffffffffffffffffffffffffff16815260200190815260200160002060006101000a81548160ff0219169083151502179055506040518060c001604052808773ffffffffffffffffffffffffffffffffffffffff16815260200186815260200185815260200184815260200183600281111561224657fe5b815260200182815250600160008873ffffffffffffffffffffffffffffffffffffffff1673ffffffffffffffffffffffffffffffffffffffff16815260200190815260200160002060008201518160000160006101000a81548173ffffffffffffffffffffffffffffffffffffffff021916908373ffffffffffffffffffffffffffffffffffffffff16021790555060208201518160010190805190602001906122f192919061302c565b50604082015181600201908051906020019061230e92919061302c565b50606082015181600301908051906020019061232b92919061302c565b5060808201518160040160006101000a81548160ff0219169083600281111561235057fe5b021790555060a082015181600501908051906020019061237192919061302c565b50905050505050505050565b60098054600181600116156101000203166002900480601f0160208091040260200160405190810160405280929190818152602001828054600181600116156101000203166002900480156124135780601f106123e857610100808354040283529160200191612413565b820191906000526020600020905b8154815290600101906020018083116123f657829003601f168201915b505050505081565b606080600080600190505b60065481116124c8573373ffffffffffffffffffffffffffffffffffffffff166002600083815260200190815260200160002060010160009054906101000a900473ffffffffffffffffffffffffffffffffffffffff1673ffffffffffffffffffffffffffffffffffffffff1614156124bb57808383815181106124a657fe5b60200260200101818152505081806001019250505b8080600101915050612426565b50819250505090565b600084116124de57600080fd5b6006548411156124ed57600080fd5b826002600086815260200190815260200160002060030160006101000a81548160ff0219169083600481111561251f57fe5b02179055508160026000868152602001908152602001600020600401908051906020019061254e9291906130ac565b50837faed36e024505e25c12abbd5805f9a03e43edc723e22f4f50bb4f14a6e9ef1ada33604051808273ffffffffffffffffffffffffffffffffffffffff1673ffffffffffffffffffffffffffffffffffffffff16815260200191505060405180910390a250505050565b600860009054906101000a900473ffffffffffffffffffffffffffffffffffffffff1681565b6000803373ffffffffffffffffffffffffffffffffffffffff1673ffffffffffffffffffffffffffffffffffffffff16815260200190815260200160002060000160009054906101000a900473ffffffffffffffffffffffffffffffffffffffff1673ffffffffffffffffffffffffffffffffffffffff163373ffffffffffffffffffffffffffffffffffffffff16146126e1576040517f08c379a000000000000000000000000000000000000000000000000000000000815260040180806020018281038252601a8152602001807f53656e6465722068617320746f20626520612070617469656e7400000000000081525060200191505060405180910390fd5b6007600081548092919060010191905055506040518060a00160405280848152602001838152602001828152602001600115158152602001600754815250600560006007548152602001908152602001600020600082015181600001908051906020019061275092919061302c565b50602082015181600101908051906020019061276d92919061302c565b50604082015181600201908051906020019061278a92919061302c565b5060608201518160030160006101000a81548160ff021916908315150217905550608082015181600401559050506000803373ffffffffffffffffffffffffffffffffffffffff1673ffffffffffffffffffffffffffffffffffffffff1681526020019081526020016000206005016007549080600181540180825580915050906001820390600052602060002001600090919290919091505550505050565b60046020528060005260406000206000915054906101000a900460ff1681565b60065481565b6005602052806000526040600020600091509050806000018054600181600116156101000203166002900480601f0160208091040260200160405190810160405280929190818152602001828054600181600116156101000203166002900480156128fc5780601f106128d1576101008083540402835291602001916128fc565b820191906000526020600020905b8154815290600101906020018083116128df57829003601f168201915b505050505090806001018054600181600116156101000203166002900480601f01602080910402602001604051908101604052809291908181526020018280546001816001161561010002031660029004801561299a5780601f1061296f5761010080835404028352916020019161299a565b820191906000526020600020905b81548152906001019060200180831161297d57829003601f168201915b505050505090806002018054600181600116156101000203166002900480601f016020809104026020016040519081016040528092919081815260200182805460018160011615610100020316600290048015612a385780601f10612a0d57610100808354040283529160200191612a38565b820191906000526020600020905b815481529060010190602001808311612a1b57829003601f168201915b5050505050908060030160009054906101000a900460ff16908060040154905085565b60016020528060005260406000206000915090508060000160009054906101000a900473ffffffffffffffffffffffffffffffffffffffff1690806001018054600181600116156101000203166002900480601f016020809104026020016040519081016040528092919081815260200182805460018160011615610100020316600290048015612b2d5780601f10612b0257610100808354040283529160200191612b2d565b820191906000526020600020905b815481529060010190602001808311612b1057829003601f168201915b505050505090806002018054600181600116156101000203166002900480601f016020809104026020016040519081016040528092919081815260200182805460018160011615610100020316600290048015612bcb5780601f10612ba057610100808354040283529160200191612bcb565b820191906000526020600020905b815481529060010190602001808311612bae57829003601f168201915b505050505090806003018054600181600116156101000203166002900480601f016020809104026020016040519081016040528092919081815260200182805460018160011615610100020316600290048015612c695780601f10612c3e57610100808354040283529160200191612c69565b820191906000526020600020905b815481529060010190602001808311612c4c57829003601f168201915b5050505050908060040160009054906101000a900460ff1690806005018054600181600116156101000203166002900480601f016020809104026020016040519081016040528092919081815260200182805460018160011615610100020316600290048015612d1a5780601f10612cef57610100808354040283529160200191612d1a565b820191906000526020600020905b815481529060010190602001808311612cfd57829003601f168201915b5050505050905086565b60606000808373ffffffffffffffffffffffffffffffffffffffff1673ffffffffffffffffffffffffffffffffffffffff168152602001908152602001600020600501805480602002602001604051908101604052809291908181526020018280548015612db157602002820191906000526020600020905b815481526020019060010190808311612d9d575b50505050509050919050565b60036020528060005260406000206000915054906101000a900460ff1681565b6000803373ffffffffffffffffffffffffffffffffffffffff1673ffffffffffffffffffffffffffffffffffffffff16815260200190815260200160002060000160009054906101000a900473ffffffffffffffffffffffffffffffffffffffff1673ffffffffffffffffffffffffffffffffffffffff163373ffffffffffffffffffffffffffffffffffffffff161415612e7757600080fd5b6040518060e001604052803373ffffffffffffffffffffffffffffffffffffffff168152602001878152602001868152602001856002811115612eb657fe5b8152602001846005811115612ec757fe5b8152602001838152602001828152506000803373ffffffffffffffffffffffffffffffffffffffff1673ffffffffffffffffffffffffffffffffffffffff16815260200190815260200160002060008201518160000160006101000a81548173ffffffffffffffffffffffffffffffffffffffff021916908373ffffffffffffffffffffffffffffffffffffffff1602179055506020820151816001019080519060200190612f7792919061302c565b506040820151816002019080519060200190612f9492919061302c565b5060608201518160030160006101000a81548160ff02191690836002811115612fb957fe5b021790555060808201518160030160016101000a81548160ff02191690836005811115612fe257fe5b021790555060a082015181600401908051906020019061300392919061302c565b5060c082015181600501908051906020019061302092919061312c565b50905050505050505050565b828054600181600116156101000203166002900490600052602060002090601f016020900481019282601f1061306d57805160ff191683800117855561309b565b8280016001018555821561309b579182015b8281111561309a57825182559160200191906001019061307f565b5b5090506130a89190613179565b5090565b828054600181600116156101000203166002900490600052602060002090601f016020900481019282601f106130ed57805160ff191683800117855561311b565b8280016001018555821561311b579182015b8281111561311a5782518255916020019190600101906130ff565b5b5090506131289190613179565b5090565b828054828255906000526020600020908101928215613168579160200282015b8281111561316757825182559160200191906001019061314c565b5b5090506131759190613179565b5090565b61319b91905b8082111561319757600081600090555060010161317f565b5090565b9056fea265627a7a723158203870c4780ce50df32ca1d6e52daafa0420423a77e75dcf46bc8580435959bec364736f6c63430005100032",
  "source": "pragma solidity >=0.4.0 <0.7.0;\n\n\ncontract EMRContract {\n    enum SexType {MALE, FEMALE, OTHER}\n    enum MaritalType {single, married, remarried, separated, divorced, widowed}\n    enum AppointmentStat {CREATED, APPROVED, REJECTED, BILLING, CLOSE}\n\n    struct Patient {\n        address client;\n        string fullname;\n        string dob;\n        SexType sex;\n        MaritalType marital;\n        string email;\n        uint256[] medicalreport;\n    }\n\n    struct Appointment {\n        uint256 index;\n        address patient;\n        uint256 datetime;\n        AppointmentStat stat;\n        string remark;\n        address doctor;\n    }\n\n    struct Doctor {\n        address Id;\n        string fullname;\n        string designation;\n        string dob;\n        SexType sex;\n        string email;\n    }\n\n    struct MedicalReport {\n        string docname;\n        string docpath;\n        string docdesp;\n        bool isActive;\n        uint256 index;\n    }\n\n    mapping(address => Patient) public patients;\n    mapping(address => Doctor) public Doctors;\n    mapping(uint256 => Appointment) public appointments;\n    mapping(address => bool) public administrator;\n    mapping(address => bool) public isDoctor;\n\n    mapping(uint256 => MedicalReport) public medicalreports;\n\n    uint256 public AppointmentIndex;\n    uint256 public MedicalReportIndex;\n\n    address public owner;\n\n    string public version = \"0.0.1\";\n\n    event eAppointmentAdd(uint256 indexed index, address sender);\n\n    event eAppointmentUpdate(uint256 indexed index, address sender);\n\n    modifier isOwner() {\n        if (msg.sender == owner) _;\n    }\n\n    modifier isAdministrator(address _admin) {\n        if (administrator[_admin] == true) _;\n    }\n\n    /*modifier isDoctor(address _doctor) {\n  \tif (isDoctor[_doctor] == true) _;\n  }*/\n\n    constructor() public {\n        owner = msg.sender;\n        administrator[msg.sender] = true;\n    }\n\n    //SetDoctor instead of SetAdministrator\n    //only admin will add doctor\n    function SetDoctor(\n        address _doctor,\n        string memory _fullname,\n        string memory _designation,\n        string memory _dob,\n        SexType _sex,\n        string memory _email\n    ) public {\n        require(msg.sender == owner);\n        require(!administrator[_doctor]);\n        //require(!isDoctor[_doctor]);\n        administrator[_doctor] = false;\n\n        isDoctor[_doctor] = true;\n        Doctors[_doctor] = Doctor(\n            _doctor,\n            _fullname,\n            _designation,\n            _dob,\n            _sex,\n            _email\n        );\n    }\n\n    function kill() public {\n        require(msg.sender == owner);\n        selfdestruct(msg.sender);\n    }\n\n    function SignupPatient(\n        string memory _fullname,\n        string memory _dob,\n        SexType _sex,\n        MaritalType _marital,\n        string memory _email,\n        uint256[] memory _medicalreport\n    ) public {\n        require(msg.sender != patients[msg.sender].client);\n\n        patients[msg.sender] = Patient(\n            msg.sender,\n            _fullname,\n            _dob,\n            _sex,\n            _marital,\n            _email,\n            _medicalreport\n        );\n    }\n\n    function PatientUpdate(\n        string memory _fullname,\n        string memory _dob,\n        SexType _sex,\n        MaritalType _marital,\n        string memory _email\n    ) public {\n        require(msg.sender == patients[msg.sender].client);\n\n        patients[msg.sender].fullname = _fullname;\n        patients[msg.sender].dob = _dob;\n        patients[msg.sender].sex = _sex;\n        patients[msg.sender].marital = _marital;\n        patients[msg.sender].email = _email;\n    }\n\n    function AppointmentAdd(\n        uint256 _datetime,\n        AppointmentStat _stat,\n        string memory _remark,\n        address _doctor\n    ) public {\n        require(msg.sender == patients[msg.sender].client);\n        require(_datetime > now);\n        require(isDoctor[_doctor] == true);\n        AppointmentIndex++;\n        //doctor added\n        appointments[AppointmentIndex] = Appointment(\n            AppointmentIndex,\n            msg.sender,\n            _datetime,\n            _stat,\n            _remark,\n            _doctor\n        );\n\n        emit eAppointmentAdd(AppointmentIndex, msg.sender);\n        //emit eAppointmentAdd(AppointmentIndex, _doctor);\n    }\n\n    function AppointmentUpdate(\n        uint256 _AppointmentIndex,\n        AppointmentStat _stat,\n        string memory _remark,\n        address _doctor\n    ) public {\n        //require(msg.sender == patients[msg.sender].client);\n        require(_AppointmentIndex > 0);\n        require(_AppointmentIndex <= AppointmentIndex);\n\n        appointments[_AppointmentIndex].stat = _stat;\n        appointments[_AppointmentIndex].remark = _remark;\n        // appointments[_AppointmentIndex].doctor = _doctor;\n        emit eAppointmentUpdate(_AppointmentIndex, msg.sender);\n        // emit eAppointmentUpdate(_AppointmentIndex, _doctor);\n    }\n\n    function AppointmentGet() public view returns (uint256[] memory) {\n        uint256[] memory results;\n        uint256 count;\n        for (uint256 i = 1; i <= AppointmentIndex; i++) {\n            if (appointments[i].patient == msg.sender) {\n                //results.push(appointments[i].index);\n                results[count] = i;\n                count++;\n            }\n        }\n        return results;\n    }\n\n    function payment(address payable _receiver) public payable {\n        _receiver.transfer(msg.value);\n    }\n\n    function MedicalReportAdd(\n        string memory _docname,\n        string memory _docpath,\n        string memory _docdesp\n    ) public {\n        require(\n            msg.sender == patients[msg.sender].client,\n            \"Sender has to be a patient\"\n        );\n\n        MedicalReportIndex++;\n        medicalreports[MedicalReportIndex] = MedicalReport(\n            _docname,\n            _docpath,\n            _docdesp,\n            true,\n            MedicalReportIndex\n        );\n\n        patients[msg.sender].medicalreport.push(MedicalReportIndex);\n    }\n\n    function MedicalReportGet(address _addr)\n        public\n        view\n        returns (uint256[] memory)\n    {\n        return patients[_addr].medicalreport;\n    }\n}\n",
  "sourcePath": "/home/naman/Desktop/quarantine/emr-using-blockchain/contracts/EMRContract.sol",
  "compiler": {
    "name": "solc",
    "version": "0.5.16+commit.9c3226ce.Emscripten.clang"
  },
  "schemaVersion": "3.1.0",
  "updatedAt": "2020-05-30T17:01:00.818Z",
  "networkType": "ethereum",
  "devdoc": {
    "methods": {}
  },
  "userdoc": {
    "methods": {}
  }
}